{
  "contractName": "Certificate",
  "abi": [
    {
      "constant": true,
      "inputs": [
        {
          "internalType": "address",
          "name": "",
          "type": "address"
        }
      ],
      "name": "certificates",
      "outputs": [
        {
          "internalType": "string",
          "name": "userName",
          "type": "string"
        },
        {
          "internalType": "string",
          "name": "issuingAuthority",
          "type": "string"
        },
        {
          "internalType": "string",
          "name": "courseName",
          "type": "string"
        },
        {
          "internalType": "uint256",
          "name": "issueDate",
          "type": "uint256"
        },
        {
          "internalType": "address",
          "name": "user",
          "type": "address"
        },
        {
          "internalType": "bool",
          "name": "isAdded",
          "type": "bool"
        }
      ],
      "payable": false,
      "stateMutability": "view",
      "type": "function"
    },
    {
      "constant": false,
      "inputs": [
        {
          "internalType": "string",
          "name": "_userName",
          "type": "string"
        },
        {
          "internalType": "string",
          "name": "_issuingAuthority",
          "type": "string"
        },
        {
          "internalType": "string",
          "name": "_courseName",
          "type": "string"
        },
        {
          "internalType": "uint256",
          "name": "_issueDate",
          "type": "uint256"
        },
        {
          "internalType": "address",
          "name": "_user",
          "type": "address"
        }
      ],
      "name": "addCertificate",
      "outputs": [],
      "payable": false,
      "stateMutability": "nonpayable",
      "type": "function"
    },
    {
      "constant": true,
      "inputs": [
        {
          "internalType": "address",
          "name": "_user",
          "type": "address"
        }
      ],
      "name": "getCertificate",
      "outputs": [
        {
          "internalType": "string",
          "name": "",
          "type": "string"
        },
        {
          "internalType": "string",
          "name": "",
          "type": "string"
        },
        {
          "internalType": "string",
          "name": "",
          "type": "string"
        },
        {
          "internalType": "uint256",
          "name": "",
          "type": "uint256"
        }
      ],
      "payable": false,
      "stateMutability": "view",
      "type": "function"
    }
  ],
  "bytecode": "0x608060405234801561001057600080fd5b50610eeb806100206000396000f3fe608060405234801561001057600080fd5b50600436106100405760003560e01c806216e526146100455780638fbc74791461021f578063fd531e9314610432575b600080fd5b6100876004803603602081101561005b57600080fd5b81019080803573ffffffffffffffffffffffffffffffffffffffff1690602001909291905050506105ce565b604051808060200180602001806020018781526020018673ffffffffffffffffffffffffffffffffffffffff1673ffffffffffffffffffffffffffffffffffffffff1681526020018515151515815260200184810384528a818151815260200191508051906020019080838360005b838110156101115780820151818401526020810190506100f6565b50505050905090810190601f16801561013e5780820380516001836020036101000a031916815260200191505b50848103835289818151815260200191508051906020019080838360005b8381101561017757808201518184015260208101905061015c565b50505050905090810190601f1680156101a45780820380516001836020036101000a031916815260200191505b50848103825288818151815260200191508051906020019080838360005b838110156101dd5780820151818401526020810190506101c2565b50505050905090810190601f16801561020a5780820380516001836020036101000a031916815260200191505b50995050505050505050505060405180910390f35b610430600480360360a081101561023557600080fd5b810190808035906020019064010000000081111561025257600080fd5b82018360208201111561026457600080fd5b8035906020019184600183028401116401000000008311171561028657600080fd5b91908080601f016020809104026020016040519081016040528093929190818152602001838380828437600081840152601f19601f820116905080830192505050505050509192919290803590602001906401000000008111156102e957600080fd5b8201836020820111156102fb57600080fd5b8035906020019184600183028401116401000000008311171561031d57600080fd5b91908080601f016020809104026020016040519081016040528093929190818152602001838380828437600081840152601f19601f8201169050808301925050505050505091929192908035906020019064010000000081111561038057600080fd5b82018360208201111561039257600080fd5b803590602001918460018302840111640100000000831117156103b457600080fd5b91908080601f016020809104026020016040519081016040528093929190818152602001838380828437600081840152601f19601f82011690508083019250505050505050919291929080359060200190929190803573ffffffffffffffffffffffffffffffffffffffff1690602001909291905050506107ff565b005b6104746004803603602081101561044857600080fd5b81019080803573ffffffffffffffffffffffffffffffffffffffff169060200190929190505050610a0c565b60405180806020018060200180602001858152602001848103845288818151815260200191508051906020019080838360005b838110156104c25780820151818401526020810190506104a7565b50505050905090810190601f1680156104ef5780820380516001836020036101000a031916815260200191505b50848103835287818151815260200191508051906020019080838360005b8381101561052857808201518184015260208101905061050d565b50505050905090810190601f1680156105555780820380516001836020036101000a031916815260200191505b50848103825286818151815260200191508051906020019080838360005b8381101561058e578082015181840152602081019050610573565b50505050905090810190601f1680156105bb5780820380516001836020036101000a031916815260200191505b5097505050505050505060405180910390f35b6000602052806000526040600020600091509050806000018054600181600116156101000203166002900480601f01602080910402602001604051908101604052809291908181526020018280546001816001161561010002031660029004801561067a5780601f1061064f5761010080835404028352916020019161067a565b820191906000526020600020905b81548152906001019060200180831161065d57829003601f168201915b505050505090806001018054600181600116156101000203166002900480601f0160208091040260200160405190810160405280929190818152602001828054600181600116156101000203166002900480156107185780601f106106ed57610100808354040283529160200191610718565b820191906000526020600020905b8154815290600101906020018083116106fb57829003601f168201915b505050505090806002018054600181600116156101000203166002900480601f0160208091040260200160405190810160405280929190818152602001828054600181600116156101000203166002900480156107b65780601f1061078b576101008083540402835291602001916107b6565b820191906000526020600020905b81548152906001019060200180831161079957829003601f168201915b5050505050908060030154908060040160009054906101000a900473ffffffffffffffffffffffffffffffffffffffff16908060040160149054906101000a900460ff16905086565b600015156000808373ffffffffffffffffffffffffffffffffffffffff1673ffffffffffffffffffffffffffffffffffffffff16815260200190815260200160002060040160149054906101000a900460ff161515146108aa576040517f08c379a0000000000000000000000000000000000000000000000000000000008152600401808060200182810382526026815260200180610e916026913960400191505060405180910390fd5b6108b2610d9d565b6040518060c001604052808781526020018681526020018581526020018481526020018373ffffffffffffffffffffffffffffffffffffffff168152602001600115158152509050806000808473ffffffffffffffffffffffffffffffffffffffff1673ffffffffffffffffffffffffffffffffffffffff1681526020019081526020016000206000820151816000019080519060200190610955929190610deb565b506020820151816001019080519060200190610972929190610deb565b50604082015181600201908051906020019061098f929190610deb565b506060820151816003015560808201518160040160006101000a81548173ffffffffffffffffffffffffffffffffffffffff021916908373ffffffffffffffffffffffffffffffffffffffff16021790555060a08201518160040160146101000a81548160ff021916908315150217905550905050505050505050565b606080606060008073ffffffffffffffffffffffffffffffffffffffff168573ffffffffffffffffffffffffffffffffffffffff161415610ab5576040517f08c379a000000000000000000000000000000000000000000000000000000000815260040180806020018281038252601e8152602001807f557365722061646472657373206d757374206e6f7420626520656d707479000081525060200191505060405180910390fd5b6000808673ffffffffffffffffffffffffffffffffffffffff1673ffffffffffffffffffffffffffffffffffffffff1681526020019081526020016000206000016000808773ffffffffffffffffffffffffffffffffffffffff1673ffffffffffffffffffffffffffffffffffffffff1681526020019081526020016000206001016000808873ffffffffffffffffffffffffffffffffffffffff1673ffffffffffffffffffffffffffffffffffffffff1681526020019081526020016000206002016000808973ffffffffffffffffffffffffffffffffffffffff1673ffffffffffffffffffffffffffffffffffffffff16815260200190815260200160002060030154838054600181600116156101000203166002900480601f016020809104026020016040519081016040528092919081815260200182805460018160011615610100020316600290048015610c4f5780601f10610c2457610100808354040283529160200191610c4f565b820191906000526020600020905b815481529060010190602001808311610c3257829003601f168201915b50505050509350828054600181600116156101000203166002900480601f016020809104026020016040519081016040528092919081815260200182805460018160011615610100020316600290048015610ceb5780601f10610cc057610100808354040283529160200191610ceb565b820191906000526020600020905b815481529060010190602001808311610cce57829003601f168201915b50505050509250818054600181600116156101000203166002900480601f016020809104026020016040519081016040528092919081815260200182805460018160011615610100020316600290048015610d875780601f10610d5c57610100808354040283529160200191610d87565b820191906000526020600020905b815481529060010190602001808311610d6a57829003601f168201915b5050505050915093509350935093509193509193565b6040518060c0016040528060608152602001606081526020016060815260200160008152602001600073ffffffffffffffffffffffffffffffffffffffff1681526020016000151581525090565b828054600181600116156101000203166002900490600052602060002090601f016020900481019282601f10610e2c57805160ff1916838001178555610e5a565b82800160010185558215610e5a579182015b82811115610e59578251825591602001919060010190610e3e565b5b509050610e679190610e6b565b5090565b610e8d91905b80821115610e89576000816000905550600101610e71565b5090565b9056fe4365727469666963617465206d757374206e6f7420626520616c72656164792061646465642ea265627a7a72315820c03f9a0d304220f3ea53618208928abf5dcd36429c797a0f3fb4e1645a2c374264736f6c63430005100032",
  "source": "pragma solidity >=0.5.0;\n\ncontract Certificate {\n\n    /** Struct */\n\n    struct Cert {\n        string userName;\n        string issuingAuthority;\n        string courseName;\n        uint256 issueDate;\n        address user;\n        bool isAdded;\n    }\n\n\n    /** Mappings */\n\n    /** Mapping for certificates */\n    mapping (address => Cert) public certificates;\n\n\n    /** Public functions */\n\n    function addCertificate(\n        string memory _userName,\n        string memory _issuingAuthority,\n        string memory _courseName,\n        uint256 _issueDate,\n        address _user\n    ) public {\n        require(\n            certificates[_user].isAdded == false,\n            \"Certificate must not be already added.\"\n        );\n\n        Cert memory cert = Cert({\n            userName: _userName,\n            issuingAuthority: _issuingAuthority,\n            courseName: _courseName,\n            issueDate: _issueDate,\n            user: _user,\n            isAdded: true\n        });\n\n        certificates[_user] = cert;\n    }\n\n    function getCertificate(address _user)\n        public\n        view\n        returns(string memory, string memory, string memory, uint) {\n            require(\n                _user != address(0),\n                \"User address must not be empty\"\n            );\n\n            return (\n                certificates[_user].userName,\n                certificates[_user].issuingAuthority,\n                certificates[_user].courseName,\n                certificates[_user].issueDate\n            );\n    }\n}\n",
  "sourcePath": "/Users/OST/Documents/certificate-verification-dapp/contracts/Certificate.sol",
  "compiler": {
    "name": "solc",
    "version": "0.5.16+commit.9c3226ce.Emscripten.clang"
  },
  "schemaVersion": "3.0.23",
  "updatedAt": "2020-05-03T06:59:56.733Z",
  "networkType": "ethereum",
  "devdoc": {
    "methods": {}
  },
  "userdoc": {
    "methods": {
      "addCertificate(string,string,string,uint256,address)": {
        "notice": "Public functions "
      }
    }
  }
}